{
  "contractName": "UserManagement",
  "abi": [
    {
      "anonymous": false,
      "inputs": [
        {
          "indexed": false,
          "internalType": "uint256",
          "name": "count",
          "type": "uint256"
        }
      ],
      "name": "ContractsRefreshed",
      "type": "event"
    },
    {
      "anonymous": false,
      "inputs": [
        {
          "indexed": false,
          "internalType": "string",
          "name": "playerName",
          "type": "string"
        },
        {
          "indexed": true,
          "internalType": "address",
          "name": "walletAddress",
          "type": "address"
        },
        {
          "indexed": false,
          "internalType": "string",
          "name": "teamName",
          "type": "string"
        }
      ],
      "name": "PlayerRegistered",
      "type": "event"
    },
    {
      "anonymous": false,
      "inputs": [
        {
          "indexed": false,
          "internalType": "string",
          "name": "teamName",
          "type": "string"
        },
        {
          "indexed": true,
          "internalType": "address",
          "name": "walletAddress",
          "type": "address"
        }
      ],
      "name": "TeamRegistered",
      "type": "event"
    },
    {
      "anonymous": false,
      "inputs": [
        {
          "indexed": true,
          "internalType": "address",
          "name": "walletAddress",
          "type": "address"
        },
        {
          "indexed": false,
          "internalType": "enum Enums.UserType",
          "name": "userType",
          "type": "uint8"
        }
      ],
      "name": "UserRegistered",
      "type": "event"
    },
    {
      "inputs": [
        {
          "internalType": "string",
          "name": "",
          "type": "string"
        }
      ],
      "name": "playersByName",
      "outputs": [
        {
          "internalType": "uint256",
          "name": "id",
          "type": "uint256"
        },
        {
          "internalType": "string",
          "name": "name",
          "type": "string"
        },
        {
          "internalType": "enum Enums.PlayerPosition",
          "name": "position",
          "type": "uint8"
        },
        {
          "internalType": "uint256",
          "name": "dateOfBirth",
          "type": "uint256"
        },
        {
          "internalType": "address",
          "name": "walletAddress",
          "type": "address"
        },
        {
          "internalType": "string",
          "name": "email",
          "type": "string"
        },
        {
          "internalType": "string",
          "name": "teamName",
          "type": "string"
        },
        {
          "internalType": "uint256",
          "name": "registrationTimestamp",
          "type": "uint256"
        },
        {
          "internalType": "bool",
          "name": "isFreeAgent",
          "type": "bool"
        },
        {
          "internalType": "uint256",
          "name": "contractExpires",
          "type": "uint256"
        }
      ],
      "stateMutability": "view",
      "type": "function"
    },
    {
      "inputs": [
        {
          "internalType": "string",
          "name": "",
          "type": "string"
        }
      ],
      "name": "teamsByName",
      "outputs": [
        {
          "internalType": "uint256",
          "name": "id",
          "type": "uint256"
        },
        {
          "internalType": "string",
          "name": "name",
          "type": "string"
        },
        {
          "internalType": "uint256",
          "name": "foundationYear",
          "type": "uint256"
        },
        {
          "internalType": "address",
          "name": "walletAddress",
          "type": "address"
        },
        {
          "internalType": "string",
          "name": "email",
          "type": "string"
        },
        {
          "internalType": "uint256",
          "name": "registrationTimestamp",
          "type": "uint256"
        }
      ],
      "stateMutability": "view",
      "type": "function"
    },
    {
      "inputs": [
        {
          "internalType": "address",
          "name": "",
          "type": "address"
        }
      ],
      "name": "users",
      "outputs": [
        {
          "internalType": "address",
          "name": "walletAddress",
          "type": "address"
        },
        {
          "internalType": "enum Enums.UserType",
          "name": "userType",
          "type": "uint8"
        },
        {
          "internalType": "string",
          "name": "email",
          "type": "string"
        },
        {
          "internalType": "string",
          "name": "passwordHash",
          "type": "string"
        },
        {
          "internalType": "string",
          "name": "entityName",
          "type": "string"
        },
        {
          "internalType": "uint256",
          "name": "registrationTimestamp",
          "type": "uint256"
        }
      ],
      "stateMutability": "view",
      "type": "function"
    },
    {
      "inputs": [
        {
          "internalType": "string",
          "name": "_teamName",
          "type": "string"
        },
        {
          "internalType": "uint256",
          "name": "_foundationYear",
          "type": "uint256"
        },
        {
          "internalType": "string",
          "name": "_email",
          "type": "string"
        },
        {
          "internalType": "string",
          "name": "_passwordHash",
          "type": "string"
        },
        {
          "internalType": "address",
          "name": "_walletAddress",
          "type": "address"
        }
      ],
      "name": "registerTeam",
      "outputs": [],
      "stateMutability": "nonpayable",
      "type": "function"
    },
    {
      "inputs": [
        {
          "internalType": "string",
          "name": "_playerName",
          "type": "string"
        },
        {
          "internalType": "enum Enums.PlayerPosition",
          "name": "_position",
          "type": "uint8"
        },
        {
          "internalType": "uint256",
          "name": "_dateOfBirth",
          "type": "uint256"
        },
        {
          "internalType": "string",
          "name": "_email",
          "type": "string"
        },
        {
          "internalType": "string",
          "name": "_passwordHash",
          "type": "string"
        },
        {
          "internalType": "address",
          "name": "_walletAddress",
          "type": "address"
        }
      ],
      "name": "registerPlayer",
      "outputs": [],
      "stateMutability": "nonpayable",
      "type": "function"
    }
  ],
  "bytecode": "0x6080604052346200002d57620000146200003e565b6200001e62000033565b611b0a620000f48239611b0a90f35b62000039565b60405190565b600080fd5b620000486200004a565b565b6200005462000056565b565b62000060620000d5565b565b60001b90565b90620000776000199162000062565b9181191691161790565b90565b90565b90565b620000a36200009d620000a99262000081565b62000087565b62000084565b90565b90565b90620000c9620000c3620000d1926200008a565b620000ac565b825462000068565b9055565b620000e360016004620000af565b620000f160016005620000af565b56fe60806040526004361015610013575b610b55565b61001e60003561006d565b806314f87b451461006857806357ebd14c14610063578063a87430ba1461005e578063c104d94c146100595763df2eb16a0361000e57610b1e565b610a44565b610912565b61071a565b6104f4565b60e01c90565b60405190565b600080fd5b600080fd5b600080fd5b600080fd5b600080fd5b601f801991011690565b634e487b7160e01b600052604160045260246000fd5b906100bc90610092565b810190811067ffffffffffffffff8211176100d657604052565b61009c565b906100ee6100e7610073565b92836100b2565b565b67ffffffffffffffff811161010e5761010a602091610092565b0190565b61009c565b90826000939282370152565b9092919261013461012f826100f0565b6100db565b938185526020850190828401116101505761014e92610113565b565b61008d565b9080601f83011215610173578160206101709335910161011f565b90565b610088565b906020828203126101a957600082013567ffffffffffffffff81116101a4576101a19201610155565b90565b610083565b61007e565b5190565b905090565b60005b8381106101cb575050906000910152565b8060209183015181850152016101ba565b6102016101f8926020926101ef816101ae565b948580936101b2565b938491016101b7565b0190565b90565b90565b61021761021c91610205565b610208565b9052565b61023061023791602094936101dc565b809261020b565b0190565b61024f610246610073565b92839283610220565b03902090565b61025e9161023b565b90565b60001c90565b90565b61027661027b91610261565b610267565b90565b610288905461026a565b90565b634e487b7160e01b600052602260045260246000fd5b90600160028304921680156102c1575b60208310146102bc57565b61028b565b91607f16916102b1565b60209181520190565b600052602060002090565b90600092918054906102fa6102f3836102a1565b80946102cb565b916001811690816000146103535750600114610316575b505050565b61032391929394506102d4565b916000925b81841061033b5750500190388080610311565b60018160209295939554848601520191019290610328565b92949550505060ff1916825215156020020190388080610311565b90610378916102df565b90565b9061039b6103949261038b610073565b9384809261036e565b03836100b2565b565b60018060a01b031690565b6103b46103b991610261565b61039d565b90565b6103c690546103a8565b90565b6103d4906001610255565b906103e16000830161027e565b916103ee6001820161037b565b916103fb6002830161027e565b91610408600382016103bc565b91610421600561041a6004850161037b565b930161027e565b90565b61042d90610205565b9052565b60209181520190565b61045961046260209361046793610450816101ae565b93848093610431565b958691016101b7565b610092565b0190565b60018060a01b031690565b61047f9061046b565b90565b61048b90610476565b9052565b969593946104dd6104f2966104d36104c88b6104ea976104ba60a09a98600060c08501940190610424565b8d602081840391015261043a565b9460408c0190610424565b60608a0190610482565b878203608089015261043a565b940190610424565b565b3461052b5761052761050f61050a366004610178565b6103c9565b9261051e969496929192610073565b9687968761048f565b0390f35b610079565b6105399161023b565b90565b60ff1690565b61054e61055391610261565b61053c565b90565b6105609054610542565b90565b60ff1690565b61057561057a91610261565b610563565b90565b6105879054610569565b90565b610595906002610530565b906105a26000830161027e565b916105af6001820161037b565b916105bc60028301610556565b916105c96003820161027e565b916105d6600483016103bc565b916105e36005820161037b565b916105f06006830161037b565b916105fd6007820161027e565b91610616600961060f6008850161057d565b930161027e565b90565b634e487b7160e01b600052602160045260246000fd5b6004111561063957565b610619565b906106488261062f565b565b6106539061063e565b90565b61065f9061064a565b9052565b151590565b61067190610663565b9052565b95866106ed916106e0610711989b9e9d9b6106d66107189e996106cc6107069a6101209f996106c4896106fb9d6106b760409460006101408501940190610424565b8b820360208d015261043a565b980190610656565b60608d0190610424565b60808b0190610482565b88820360a08a015261043a565b9086820360c088015261043a565b9860e0850190610424565b610100830190610668565b0190610424565b565b3461075757610753610735610730366004610178565b61058a565b9661074a9a989a969196959295949394610073565b9a8b9a8b610675565b0390f35b610079565b61076581610476565b0361076c57565b600080fd5b9050359061077e8261075c565b565b9060208282031261079a5761079791600001610771565b90565b61007e565b90565b6107b66107b16107bb9261046b565b61079f565b61046b565b90565b6107c7906107a2565b90565b6107d3906107be565b90565b906107e0906107ca565b600052602052604060002090565b60a01c90565b60ff1690565b61080661080b916107ee565b6107f4565b90565b61081890546107fa565b90565b6108269060006107d6565b90610833600083016103bc565b916108406000820161080e565b9161084d6001830161037b565b9161085a6002820161037b565b91610873600461086c6003850161037b565b930161027e565b90565b6002111561088057565b610619565b9061088f82610876565b565b61089a90610885565b90565b6108a690610891565b9052565b9695936108fa906108ec610910979360a0966108df6109089760208e6108d860c08201966000830190610482565b019061089d565b8b820360408d015261043a565b9089820360608b015261043a565b90878203608089015261043a565b940190610424565b565b346109495761094561092d610928366004610780565b61081b565b9261093c969496929192610073565b968796876108aa565b0390f35b610079565b6004111561095857565b600080fd5b9050359061096a8261094e565b565b61097581610205565b0361097c57565b600080fd5b9050359061098e8261096c565b565b909160c082840312610a3957600082013567ffffffffffffffff8111610a3457836109bc918401610155565b926109ca816020850161095d565b926109d88260408301610981565b92606082013567ffffffffffffffff8111610a2f57836109f9918401610155565b9260808301359067ffffffffffffffff8211610a2a57610a1e81610a27938601610155565b9360a001610771565b90565b610083565b610083565b610083565b61007e565b60000190565b34610a7957610a63610a57366004610990565b94939093929192611ac4565b610a6b610073565b80610a7581610a3e565b0390f35b610079565b919060a083820312610b1957600083013567ffffffffffffffff8111610b145781610aaa918501610155565b92610ab88260208301610981565b92604082013567ffffffffffffffff8111610b0f5783610ad9918401610155565b9260608301359067ffffffffffffffff8211610b0a57610afe81610b07938601610155565b93608001610771565b90565b610083565b610083565b610083565b61007e565b34610b5057610b3a610b31366004610a7e565b939290926114e9565b610b42610073565b80610b4c81610a3e565b0390f35b610079565b600080fd5b90565b610b71610b6c610b7692610b5a565b61079f565b61046b565b90565b610b8290610b5d565b90565b15610b8c57565b600080fd5b90610bd794939291610bd2610bb16000610bab88826107d6565b016103bc565b610bcc610bc6610bc16000610b79565b610476565b91610476565b14610b85565b610bd9565b565b90610c0c94939291610c0785610c00610bfa610bf56000610b79565b610476565b91610476565b1415610b85565b611309565b565b90565b610c1b90546102a1565b90565b610c32610c2d610c3792610b5a565b61079f565b610205565b90565b610c4460c06100db565b90565b90610c5190610476565b9052565b90610c5f90610885565b9052565b52565b90610c7090610205565b9052565b610c7e9051610476565b90565b60001b90565b90610c9860018060a01b0391610c81565b9181191691161790565b90565b90610cba610cb5610cc1926107ca565b610ca2565b8254610c87565b9055565b610ccf9051610885565b90565b60a01b90565b90610ce760ff60a01b91610cd2565b9181191691161790565b610cfa90610885565b90565b90565b90610d15610d10610d1c92610cf1565b610cfd565b8254610cd8565b9055565b5190565b601f602091010490565b1b90565b91906008610d4e910291610d4860001984610d2e565b92610d2e565b9181191691161790565b610d6c610d67610d7192610205565b61079f565b610205565b90565b90565b9190610d8d610d88610d9593610d58565b610d74565b908354610d32565b9055565b600090565b610db091610daa610d99565b91610d77565b565b5b818110610dbe575050565b80610dcc6000600193610d9e565b01610db3565b9190601f8111610de2575b505050565b610dee610e13936102d4565b906020610dfa84610d24565b83019310610e1b575b610e0c90610d24565b0190610db2565b388080610ddd565b9150610e0c81929050610e03565b1c90565b90610e3e9060001990600802610e29565b191690565b81610e4d91610e2d565b906002021790565b90610e5f816101ae565b9067ffffffffffffffff8211610f2157610e8382610e7d85546102a1565b85610dd2565b602090601f8311600114610eb857918091610ea793600092610eac575b5050610e43565b90555b565b90915001513880610ea0565b601f19831691610ec7856102d4565b9260005b818110610f0957509160029391856001969410610eef575b50505002019055610eaa565b610eff910151601f841690610e2d565b9055388080610ee3565b91936020600181928787015181550195019201610ecb565b61009c565b90610f3091610e55565b565b610f3c9051610205565b90565b90610f4c60001991610c81565b9181191691161790565b90610f6b610f66610f7292610d58565b610d74565b8254610f3f565b9055565b9061100760a0600461100d94610f9b60008201610f9560008801610c74565b90610ca5565b610fb460008201610fae60208801610cc5565b90610d00565b610fcd60018201610fc760408801610d20565b90610f26565b610fe660028201610fe060608801610d20565b90610f26565b610fff60038201610ff960808801610d20565b90610f26565b019201610f32565b90610f56565b565b9061101991610f76565b565b634e487b7160e01b600052601160045260246000fd5b61103a90610205565b60001981146110495760010190565b61101b565b67ffffffffffffffff81116110665760208091020190565b61009c565b9061107d6110788361104e565b6100db565b918252565b369037565b906110ac6110948361106b565b926020806110a2869361104e565b9201910390611082565b565b6110b860e06100db565b90565b52565b5190565b5490565b600190818003010490565b600052602060002090565b5b8181106110e8575050565b806110f66000600193610d9e565b016110dd565b909182811061110b575b505050565b61112961112361111d611134956110c6565b926110c6565b926110d1565b9182019101906110dc565b388080611106565b90680100000000000000008111611165578161115a611163936110c2565b908281556110fc565b565b61009c565b5190565b60200190565b9190600861119491029161118e60018060a01b0384610d2e565b92610d2e565b9181191691161790565b6111a78261116a565b9167ffffffffffffffff831161120b576111d56111cf6001926111ca868661113c565b61116e565b926110d1565b92049160005b8381106111e85750505050565b60019060206111fe6111f986610c74565b610ca2565b94019381840155016111db565b61009c565b9061121a9161119e565b565b906112c660c060066112cc946112416000820161123b60008801610f32565b90610f56565b61125a6001820161125460208801610d20565b90610f26565b6112736002820161126d60408801610f32565b90610f56565b61128c6003820161128660608801610c74565b90610ca5565b6112a56004820161129f60808801610d20565b90610f26565b6112be600582016112b860a08801610f32565b90610f56565b0192016110be565b90611210565b565b906112d89161121c565b565b91906112ee9060006020850194019061089d565b565b611306916020820191600081840391015261043a565b90565b9261145e926114446000936113c061144d9461135361133b61133660016113308d82610255565b01610c0e565b610c11565b61134d6113478a610c1e565b91610205565b14610b85565b6113b08a916113a760019161139e8d6113958b93919361138c4297611383611379610c3a565b9b60008d01610c47565b60208b01610c55565b60408901610c63565b60608701610c63565b60808501610c63565b60a08301610c66565b6113bb878b906107d6565b61100f565b61143b6113cd600461027e565b6113e06113d982611031565b6004610f56565b936114328993916114298c919361142042976114176114066114018f610c1e565b611087565b9b61140f6110ae565b9e8f01610c66565b60208d01610c63565b60408b01610c66565b60608901610c47565b60808701610c63565b60a08501610c66565b60c083016110bb565b61145960018490610255565b6112ce565b816001906114a161148f7f8e18574f8a7333e6a87112742a55853a643e2f0550f4e1a3a2c3f1bb2994441d926107ca565b92611498610073565b918291826112da565b0390a2906114e46114d27fdee35e59d52579d265f7717d034e930ac94f6d679e1980b4b6d194883ec840b9926107ca565b926114db610073565b918291826112f0565b0390a2565b906114f694939291610b91565b565b9061153f959493929161153a611519600061151389826107d6565b016103bc565b61153461152e6115296000610b79565b610476565b91610476565b14610b85565b611541565b565b9061157595949392916115708661156961156361155e6000610b79565b610476565b91610476565b1415610b85565b61186b565b565b90611589611584836100f0565b6100db565b918252565b60006b737a61626164c3ba737ac3b360a01b910152565b6115af600c611577565b906115bc6020830161158e565b565b6115c66115a5565b90565b6115d16115be565b90565b6115df6101406100db565b90565b906115ec9061063e565b9052565b906115fa90610663565b9052565b611608905161063e565b90565b9061161760ff91610c81565b9181191691161790565b61162a9061063e565b90565b90565b9061164561164061164c92611621565b61162d565b825461160b565b9055565b61165a9051610663565b90565b61166690610663565b90565b90565b9061168161167c6116889261165d565b611669565b825461160b565b9055565b906117836101206009611789946116b2600082016116ac60008801610f32565b90610f56565b6116cb600182016116c560208801610d20565b90610f26565b6116e4600282016116de604088016115fe565b90611630565b6116fd600382016116f760608801610f32565b90610f56565b6117166004820161171060808801610c74565b90610ca5565b61172f6005820161172960a08801610d20565b90610f26565b6117486006820161174260c08801610d20565b90610f26565b6117616007820161175b60e08801610f32565b90610f56565b61177b600882016117756101008801611650565b9061166c565b019201610f32565b90610f56565b565b906117959161168c565b565b90565b600052602060002090565b634e487b7160e01b600052603260045260246000fd5b5490565b6117c8816117bb565b8210156117e3576117da60019161179a565b91020190600090565b6117a5565b91906117fe6117f9611806936107ca565b610ca2565b908354611174565b9055565b908154916801000000000000000083101561183a5782611832916001611838950181556117bf565b906117e8565b565b61009c565b909161185a611868936040840190848203600086015261043a565b91602081840391015261043a565b90565b9391909160028561187b91610530565b60010161188790610c0e565b61189090610c11565b600061189b90610c1e565b906118a590610205565b146118af90610b85565b85906000908590879142936118c2610c3a565b9560008701906118d191610c47565b60208601906118df91610c55565b60408501906118ed91610c63565b60608401906118fb91610c63565b608083019061190991610c63565b60a082019061191791610c66565b600086611923916107d6565b9061192d9161100f565b611937600561027e565b61194081611031565b61194b906005610f56565b9284929190869061195a6115c9565b91429360019560009761196b6115d4565b9960008b019061197a91610c66565b60208a019061198891610c63565b6040890190611996916115e2565b60608801906119a491610c66565b60808701906119b291610c47565b60a08601906119c091610c63565b60c08501906119ce91610c63565b60e08401906119dc91610c66565b6101008301906119eb916115f0565b6119f490610c1e565b610120820190611a0391610c66565b600282611a0f91610530565b90611a199161178b565b6003611a2490611797565b82611a2e9161180a565b816000907f8e18574f8a7333e6a87112742a55853a643e2f0550f4e1a3a2c3f1bb2994441d90611a5d906107ca565b91611a66610073565b611a718192826112da565b0390a290611a7d6115c9565b917f8d4dc872525846f38a50a89fce7f45b434a685619aa2dff18b6ddfa6d21d6fcc91611aa9906107ca565b92611ab2610073565b918291611abf918361183f565b0390a2565b90611ad295949392916114f8565b56fea26469706673582212203d11e8902271ab95257a47d7db334f459e6669252cc89df354ad3bcc9ef9103864736f6c63430008150033",
  "immutableReferences": {},
  "source": "// SPDX-License-Identifier: MIT\r\npragma solidity ^0.8.21;\r\n\r\nimport \"./Storage.sol\";\r\nimport \"./Conditions.sol\";\r\nimport \"./Interfaces/IUserManagement.sol\";\r\nimport \"./Libraries.sol\";\r\n\r\ncontract UserManagement is BaseStorage, Modifiers, IUserManagement {\r\n\r\n    using PlayerLibrary for Structs.Player;\r\n    using TeamLibrary for Structs.Team;\r\n    \r\n    function registerTeam(\r\n        string memory _teamName,\r\n        uint256 _foundationYear,\r\n        string memory _email,\r\n        string memory _passwordHash,\r\n        address _walletAddress\r\n    )\r\n        external\r\n        override\r\n        userNotExists(_walletAddress)\r\n        validAddress(_walletAddress)\r\n    {\r\n        require(\r\n            bytes(teamsByName[_teamName].name).length == 0,\r\n            \"Team name already taken.\"\r\n        );\r\n\r\n        users[_walletAddress] = Structs.User(\r\n            _walletAddress,\r\n            Enums.UserType.Team,\r\n            _email,\r\n            _passwordHash,\r\n            _teamName,\r\n            block.timestamp\r\n        );\r\n\r\n        teamsByName[_teamName] = Structs.Team(\r\n            nextTeamId++,\r\n            _teamName,\r\n            _foundationYear,\r\n            _walletAddress,\r\n            _email,\r\n            block.timestamp,\r\n            new address[](0)\r\n        );\r\n\r\n        emit UserRegistered(_walletAddress, Enums.UserType.Team);\r\n        emit TeamRegistered(_teamName, _walletAddress);\r\n    }\r\n\r\n    function registerPlayer(\r\n        string memory _playerName,\r\n        Enums.PlayerPosition _position,\r\n        uint256 _dateOfBirth,\r\n        string memory _email,\r\n        string memory _passwordHash,\r\n        address _walletAddress\r\n    )\r\n        external\r\n        override\r\n        userNotExists(_walletAddress)\r\n        validAddress(_walletAddress)\r\n    {\r\n        require(\r\n            bytes(playersByName[_playerName].name).length == 0,\r\n            \"Player name already taken.\"\r\n        );\r\n\r\n        users[_walletAddress] = Structs.User(\r\n            _walletAddress,\r\n            Enums.UserType.Player,\r\n            _email,\r\n            _passwordHash,\r\n            _playerName,\r\n            block.timestamp\r\n        );\r\n\r\n        playersByName[_playerName] = Structs.Player(\r\n            nextPlayerId++,\r\n            _playerName,\r\n            _position,\r\n            _dateOfBirth,\r\n            _walletAddress,\r\n            _email,\r\n            FREE_AGENT,\r\n            block.timestamp,\r\n            true,\r\n            0\r\n        );\r\n\r\n        allPlayerWalletAddresses.push(_walletAddress);\r\n\r\n        emit UserRegistered(_walletAddress, Enums.UserType.Player);\r\n        emit PlayerRegistered(_playerName, _walletAddress, FREE_AGENT);\r\n    }  \r\n     \r\n}",
  "sourcePath": "D:\\Egyetem\\Szakdolgozat_FCM_DAPP\\Blockchain_Backend\\contracts\\UserManagement.sol",
  "compiler": {
    "name": "solc",
    "version": "0.8.21+commit.d9974bed.Emscripten.clang"
  },
  "schemaVersion": "3.4.16",
  "updatedAt": "2025-11-02T18:52:57.495Z",
  "devdoc": {
    "kind": "dev",
    "methods": {},
    "version": 1
  },
  "userdoc": {
    "kind": "user",
    "methods": {},
    "version": 1
  }
}